{
  "_format": "hh-sol-artifact-1",
  "contractName": "Ticket",
  "sourceName": "contracts/community/Ticket.sol",
  "abi": [
    {
      "inputs": [
        {
          "internalType": "string",
          "name": "_name",
          "type": "string"
        },
        {
          "internalType": "string",
          "name": "_symbol",
          "type": "string"
        },
        {
          "internalType": "address",
          "name": "_henkakuTokenV2",
          "type": "address"
        }
      ],
      "stateMutability": "nonpayable",
      "type": "constructor"
    },
    {
      "inputs": [
        {
          "internalType": "string",
          "name": "",
          "type": "string"
        }
      ],
      "name": "InvalidParams",
      "type": "error"
    },
    {
      "anonymous": false,
      "inputs": [
        {
          "indexed": true,
          "internalType": "address",
          "name": "account",
          "type": "address"
        },
        {
          "indexed": true,
          "internalType": "address",
          "name": "operator",
          "type": "address"
        },
        {
          "indexed": false,
          "internalType": "bool",
          "name": "approved",
          "type": "bool"
        }
      ],
      "name": "ApprovalForAll",
      "type": "event"
    },
    {
      "anonymous": false,
      "inputs": [
        {
          "indexed": true,
          "internalType": "address",
          "name": "minter",
          "type": "address"
        },
        {
          "indexed": true,
          "internalType": "uint256",
          "name": "tokenId",
          "type": "uint256"
        }
      ],
      "name": "Mint",
      "type": "event"
    },
    {
      "anonymous": false,
      "inputs": [
        {
          "indexed": true,
          "internalType": "address",
          "name": "creator",
          "type": "address"
        },
        {
          "indexed": false,
          "internalType": "uint64",
          "name": "open_blockTimestamp",
          "type": "uint64"
        },
        {
          "indexed": false,
          "internalType": "uint64",
          "name": "close_blockTimestamp",
          "type": "uint64"
        },
        {
          "indexed": false,
          "internalType": "uint64",
          "name": "maxSupply",
          "type": "uint64"
        },
        {
          "indexed": false,
          "internalType": "uint256",
          "name": "tokenId",
          "type": "uint256"
        },
        {
          "indexed": false,
          "internalType": "uint256",
          "name": "price",
          "type": "uint256"
        },
        {
          "indexed": false,
          "internalType": "string",
          "name": "metaDataURL",
          "type": "string"
        },
        {
          "indexed": false,
          "internalType": "uint256[]",
          "name": "sharesAmounts",
          "type": "uint256[]"
        },
        {
          "indexed": false,
          "internalType": "address[]",
          "name": "shareholdersAddresses",
          "type": "address[]"
        }
      ],
      "name": "RegisterTicket",
      "type": "event"
    },
    {
      "anonymous": false,
      "inputs": [
        {
          "indexed": true,
          "internalType": "address",
          "name": "operator",
          "type": "address"
        },
        {
          "indexed": true,
          "internalType": "address",
          "name": "from",
          "type": "address"
        },
        {
          "indexed": true,
          "internalType": "address",
          "name": "to",
          "type": "address"
        },
        {
          "indexed": false,
          "internalType": "uint256[]",
          "name": "ids",
          "type": "uint256[]"
        },
        {
          "indexed": false,
          "internalType": "uint256[]",
          "name": "values",
          "type": "uint256[]"
        }
      ],
      "name": "TransferBatch",
      "type": "event"
    },
    {
      "anonymous": false,
      "inputs": [
        {
          "indexed": true,
          "internalType": "address",
          "name": "operator",
          "type": "address"
        },
        {
          "indexed": true,
          "internalType": "address",
          "name": "from",
          "type": "address"
        },
        {
          "indexed": true,
          "internalType": "address",
          "name": "to",
          "type": "address"
        },
        {
          "indexed": false,
          "internalType": "uint256",
          "name": "id",
          "type": "uint256"
        },
        {
          "indexed": false,
          "internalType": "uint256",
          "name": "value",
          "type": "uint256"
        }
      ],
      "name": "TransferSingle",
      "type": "event"
    },
    {
      "anonymous": false,
      "inputs": [
        {
          "indexed": false,
          "internalType": "string",
          "name": "value",
          "type": "string"
        },
        {
          "indexed": true,
          "internalType": "uint256",
          "name": "id",
          "type": "uint256"
        }
      ],
      "name": "URI",
      "type": "event"
    },
    {
      "inputs": [
        {
          "internalType": "address[]",
          "name": "_newAdmins",
          "type": "address[]"
        }
      ],
      "name": "addAdmins",
      "outputs": [],
      "stateMutability": "nonpayable",
      "type": "function"
    },
    {
      "inputs": [
        {
          "internalType": "address",
          "name": "account",
          "type": "address"
        },
        {
          "internalType": "uint256",
          "name": "id",
          "type": "uint256"
        }
      ],
      "name": "balanceOf",
      "outputs": [
        {
          "internalType": "uint256",
          "name": "",
          "type": "uint256"
        }
      ],
      "stateMutability": "view",
      "type": "function"
    },
    {
      "inputs": [
        {
          "internalType": "address[]",
          "name": "accounts",
          "type": "address[]"
        },
        {
          "internalType": "uint256[]",
          "name": "ids",
          "type": "uint256[]"
        }
      ],
      "name": "balanceOfBatch",
      "outputs": [
        {
          "internalType": "uint256[]",
          "name": "",
          "type": "uint256[]"
        }
      ],
      "stateMutability": "view",
      "type": "function"
    },
    {
      "inputs": [
        {
          "internalType": "address",
          "name": "_deleteAdmin",
          "type": "address"
        }
      ],
      "name": "deleteAdmin",
      "outputs": [],
      "stateMutability": "nonpayable",
      "type": "function"
    },
    {
      "inputs": [
        {
          "internalType": "uint256",
          "name": "id",
          "type": "uint256"
        }
      ],
      "name": "exists",
      "outputs": [
        {
          "internalType": "bool",
          "name": "",
          "type": "bool"
        }
      ],
      "stateMutability": "view",
      "type": "function"
    },
    {
      "inputs": [],
      "name": "henkakuV2",
      "outputs": [
        {
          "internalType": "address",
          "name": "",
          "type": "address"
        }
      ],
      "stateMutability": "view",
      "type": "function"
    },
    {
      "inputs": [
        {
          "internalType": "address",
          "name": "_address",
          "type": "address"
        }
      ],
      "name": "isAdmin",
      "outputs": [
        {
          "internalType": "bool",
          "name": "",
          "type": "bool"
        }
      ],
      "stateMutability": "view",
      "type": "function"
    },
    {
      "inputs": [
        {
          "internalType": "address",
          "name": "account",
          "type": "address"
        },
        {
          "internalType": "address",
          "name": "operator",
          "type": "address"
        }
      ],
      "name": "isApprovedForAll",
      "outputs": [
        {
          "internalType": "bool",
          "name": "",
          "type": "bool"
        }
      ],
      "stateMutability": "view",
      "type": "function"
    },
    {
      "inputs": [
        {
          "internalType": "uint256",
          "name": "_tokenId",
          "type": "uint256"
        }
      ],
      "name": "mint",
      "outputs": [],
      "stateMutability": "nonpayable",
      "type": "function"
    },
    {
      "inputs": [],
      "name": "mintable",
      "outputs": [
        {
          "internalType": "bool",
          "name": "",
          "type": "bool"
        }
      ],
      "stateMutability": "view",
      "type": "function"
    },
    {
      "inputs": [],
      "name": "name",
      "outputs": [
        {
          "internalType": "string",
          "name": "",
          "type": "string"
        }
      ],
      "stateMutability": "view",
      "type": "function"
    },
    {
      "inputs": [
        {
          "internalType": "uint64",
          "name": "_maxSupply",
          "type": "uint64"
        },
        {
          "internalType": "string",
          "name": "_metaDataURL",
          "type": "string"
        },
        {
          "internalType": "uint256",
          "name": "_price",
          "type": "uint256"
        },
        {
          "internalType": "uint64",
          "name": "_open_blockTimestamp",
          "type": "uint64"
        },
        {
          "internalType": "uint64",
          "name": "_close_blockTimestamp",
          "type": "uint64"
        },
        {
          "internalType": "address[]",
          "name": "_shareholdersAddresses",
          "type": "address[]"
        },
        {
          "internalType": "uint256[]",
          "name": "_sharesAmounts",
          "type": "uint256[]"
        }
      ],
      "name": "registerTicket",
      "outputs": [],
      "stateMutability": "nonpayable",
      "type": "function"
    },
    {
      "inputs": [],
      "name": "retrieveAllTickets",
      "outputs": [
        {
          "components": [
            {
              "internalType": "address",
              "name": "creator",
              "type": "address"
            },
            {
              "internalType": "uint64",
              "name": "open_blockTimestamp",
              "type": "uint64"
            },
            {
              "internalType": "uint64",
              "name": "close_blockTimestamp",
              "type": "uint64"
            },
            {
              "internalType": "uint64",
              "name": "maxSupply",
              "type": "uint64"
            },
            {
              "internalType": "uint256",
              "name": "id",
              "type": "uint256"
            },
            {
              "internalType": "uint256",
              "name": "price",
              "type": "uint256"
            },
            {
              "internalType": "string",
              "name": "uri",
              "type": "string"
            },
            {
              "internalType": "uint256[]",
              "name": "sharesAmounts",
              "type": "uint256[]"
            },
            {
              "internalType": "address[]",
              "name": "shareholdersAddresses",
              "type": "address[]"
            }
          ],
          "internalType": "struct Ticket.TicketInfo[]",
          "name": "",
          "type": "tuple[]"
        }
      ],
      "stateMutability": "view",
      "type": "function"
    },
    {
      "inputs": [
        {
          "internalType": "address",
          "name": "_address",
          "type": "address"
        }
      ],
      "name": "retrieveMintedTickets",
      "outputs": [
        {
          "components": [
            {
              "internalType": "address",
              "name": "creator",
              "type": "address"
            },
            {
              "internalType": "uint64",
              "name": "open_blockTimestamp",
              "type": "uint64"
            },
            {
              "internalType": "uint64",
              "name": "close_blockTimestamp",
              "type": "uint64"
            },
            {
              "internalType": "uint64",
              "name": "maxSupply",
              "type": "uint64"
            },
            {
              "internalType": "uint256",
              "name": "id",
              "type": "uint256"
            },
            {
              "internalType": "uint256",
              "name": "price",
              "type": "uint256"
            },
            {
              "internalType": "string",
              "name": "uri",
              "type": "string"
            },
            {
              "internalType": "uint256[]",
              "name": "sharesAmounts",
              "type": "uint256[]"
            },
            {
              "internalType": "address[]",
              "name": "shareholdersAddresses",
              "type": "address[]"
            }
          ],
          "internalType": "struct Ticket.TicketInfo[]",
          "name": "",
          "type": "tuple[]"
        }
      ],
      "stateMutability": "view",
      "type": "function"
    },
    {
      "inputs": [
        {
          "internalType": "uint256",
          "name": "_tokenId",
          "type": "uint256"
        }
      ],
      "name": "retrieveRegisteredTicket",
      "outputs": [
        {
          "components": [
            {
              "internalType": "address",
              "name": "creator",
              "type": "address"
            },
            {
              "internalType": "uint64",
              "name": "open_blockTimestamp",
              "type": "uint64"
            },
            {
              "internalType": "uint64",
              "name": "close_blockTimestamp",
              "type": "uint64"
            },
            {
              "internalType": "uint64",
              "name": "maxSupply",
              "type": "uint64"
            },
            {
              "internalType": "uint256",
              "name": "id",
              "type": "uint256"
            },
            {
              "internalType": "uint256",
              "name": "price",
              "type": "uint256"
            },
            {
              "internalType": "string",
              "name": "uri",
              "type": "string"
            },
            {
              "internalType": "uint256[]",
              "name": "sharesAmounts",
              "type": "uint256[]"
            },
            {
              "internalType": "address[]",
              "name": "shareholdersAddresses",
              "type": "address[]"
            }
          ],
          "internalType": "struct Ticket.TicketInfo",
          "name": "",
          "type": "tuple"
        }
      ],
      "stateMutability": "view",
      "type": "function"
    },
    {
      "inputs": [
        {
          "internalType": "address",
          "name": "_address",
          "type": "address"
        }
      ],
      "name": "retrieveRegisteredTickets",
      "outputs": [
        {
          "components": [
            {
              "internalType": "address",
              "name": "creator",
              "type": "address"
            },
            {
              "internalType": "uint64",
              "name": "open_blockTimestamp",
              "type": "uint64"
            },
            {
              "internalType": "uint64",
              "name": "close_blockTimestamp",
              "type": "uint64"
            },
            {
              "internalType": "uint64",
              "name": "maxSupply",
              "type": "uint64"
            },
            {
              "internalType": "uint256",
              "name": "id",
              "type": "uint256"
            },
            {
              "internalType": "uint256",
              "name": "price",
              "type": "uint256"
            },
            {
              "internalType": "string",
              "name": "uri",
              "type": "string"
            },
            {
              "internalType": "uint256[]",
              "name": "sharesAmounts",
              "type": "uint256[]"
            },
            {
              "internalType": "address[]",
              "name": "shareholdersAddresses",
              "type": "address[]"
            }
          ],
          "internalType": "struct Ticket.TicketInfo[]",
          "name": "",
          "type": "tuple[]"
        }
      ],
      "stateMutability": "view",
      "type": "function"
    },
    {
      "inputs": [
        {
          "internalType": "address",
          "name": "from",
          "type": "address"
        },
        {
          "internalType": "address",
          "name": "to",
          "type": "address"
        },
        {
          "internalType": "uint256[]",
          "name": "ids",
          "type": "uint256[]"
        },
        {
          "internalType": "uint256[]",
          "name": "amounts",
          "type": "uint256[]"
        },
        {
          "internalType": "bytes",
          "name": "data",
          "type": "bytes"
        }
      ],
      "name": "safeBatchTransferFrom",
      "outputs": [],
      "stateMutability": "nonpayable",
      "type": "function"
    },
    {
      "inputs": [
        {
          "internalType": "address",
          "name": "from",
          "type": "address"
        },
        {
          "internalType": "address",
          "name": "to",
          "type": "address"
        },
        {
          "internalType": "uint256",
          "name": "id",
          "type": "uint256"
        },
        {
          "internalType": "uint256",
          "name": "amount",
          "type": "uint256"
        },
        {
          "internalType": "bytes",
          "name": "data",
          "type": "bytes"
        }
      ],
      "name": "safeTransferFrom",
      "outputs": [],
      "stateMutability": "nonpayable",
      "type": "function"
    },
    {
      "inputs": [
        {
          "internalType": "address",
          "name": "operator",
          "type": "address"
        },
        {
          "internalType": "bool",
          "name": "approved",
          "type": "bool"
        }
      ],
      "name": "setApprovalForAll",
      "outputs": [],
      "stateMutability": "nonpayable",
      "type": "function"
    },
    {
      "inputs": [
        {
          "internalType": "bytes4",
          "name": "interfaceId",
          "type": "bytes4"
        }
      ],
      "name": "supportsInterface",
      "outputs": [
        {
          "internalType": "bool",
          "name": "",
          "type": "bool"
        }
      ],
      "stateMutability": "view",
      "type": "function"
    },
    {
      "inputs": [],
      "name": "switchMintable",
      "outputs": [],
      "stateMutability": "nonpayable",
      "type": "function"
    },
    {
      "inputs": [],
      "name": "symbol",
      "outputs": [
        {
          "internalType": "string",
          "name": "",
          "type": "string"
        }
      ],
      "stateMutability": "view",
      "type": "function"
    },
    {
      "inputs": [
        {
          "internalType": "uint256",
          "name": "_tokenId",
          "type": "uint256"
        }
      ],
      "name": "tokenURI",
      "outputs": [
        {
          "internalType": "string",
          "name": "",
          "type": "string"
        }
      ],
      "stateMutability": "view",
      "type": "function"
    },
    {
      "inputs": [
        {
          "internalType": "uint256",
          "name": "id",
          "type": "uint256"
        }
      ],
      "name": "totalSupply",
      "outputs": [
        {
          "internalType": "uint256",
          "name": "",
          "type": "uint256"
        }
      ],
      "stateMutability": "view",
      "type": "function"
    },
    {
      "inputs": [
        {
          "internalType": "uint256",
          "name": "_tokenId",
          "type": "uint256"
        }
      ],
      "name": "uri",
      "outputs": [
        {
          "internalType": "string",
          "name": "",
          "type": "string"
        }
      ],
      "stateMutability": "view",
      "type": "function"
    }
  ],
  "bytecode": "0x60806040523480156200001157600080fd5b5060405162006558380380620065588339818101604052810190620000379190620006ea565b80604051806020016040528060008152506200005981620003c760201b60201c565b506001600460003373ffffffffffffffffffffffffffffffffffffffff1673ffffffffffffffffffffffffffffffffffffffff16815260200190815260200160002060006101000a81548160ff02191690831515021790555080600560016101000a81548173ffffffffffffffffffffffffffffffffffffffff021916908373ffffffffffffffffffffffffffffffffffffffff160217905550508260079081620001059190620009cf565b508160089081620001179190620009cf565b50600b604051806101200160405280600073ffffffffffffffffffffffffffffffffffffffff168152602001600067ffffffffffffffff168152602001600067ffffffffffffffff168152602001600067ffffffffffffffff1681526020016000815260200160008152602001604051806020016040528060008152508152602001600067ffffffffffffffff811115620001b757620001b662000521565b5b604051908082528060200260200182016040528015620001e65781602001602082028036833780820191505090505b508152602001600067ffffffffffffffff8111156200020a576200020962000521565b5b604051908082528060200260200182016040528015620002395781602001602082028036833780820191505090505b50815250908060018154018082558091505060019003906000526020600020906007020160009091909190915060008201518160000160006101000a81548173ffffffffffffffffffffffffffffffffffffffff021916908373ffffffffffffffffffffffffffffffffffffffff16021790555060208201518160000160146101000a81548167ffffffffffffffff021916908367ffffffffffffffff16021790555060408201518160010160006101000a81548167ffffffffffffffff021916908367ffffffffffffffff16021790555060608201518160010160086101000a81548167ffffffffffffffff021916908367ffffffffffffffff1602179055506080820151816002015560a0820151816003015560c0820151816004019081620003659190620009cf565b5060e082015181600501908051906020019062000384929190620003f2565b50610100820151816006019080519060200190620003a492919062000444565b505050620003be6006620003dc60201b6200231e1760201c565b50505062000ab6565b8060029081620003d89190620009cf565b5050565b6001816000016000828254019250508190555050565b82805482825590600052602060002090810192821562000431579160200282015b828111156200043057825182559160200191906001019062000413565b5b509050620004409190620004d3565b5090565b828054828255906000526020600020908101928215620004c0579160200282015b82811115620004bf5782518260006101000a81548173ffffffffffffffffffffffffffffffffffffffff021916908373ffffffffffffffffffffffffffffffffffffffff1602179055509160200191906001019062000465565b5b509050620004cf9190620004d3565b5090565b5b80821115620004ee576000816000905550600101620004d4565b5090565b6000604051905090565b600080fd5b600080fd5b600080fd5b600080fd5b6000601f19601f8301169050919050565b7f4e487b7100000000000000000000000000000000000000000000000000000000600052604160045260246000fd5b6200055b8262000510565b810181811067ffffffffffffffff821117156200057d576200057c62000521565b5b80604052505050565b600062000592620004f2565b9050620005a0828262000550565b919050565b600067ffffffffffffffff821115620005c357620005c262000521565b5b620005ce8262000510565b9050602081019050919050565b60005b83811015620005fb578082015181840152602081019050620005de565b60008484015250505050565b60006200061e6200061884620005a5565b62000586565b9050828152602081018484840111156200063d576200063c6200050b565b5b6200064a848285620005db565b509392505050565b600082601f8301126200066a576200066962000506565b5b81516200067c84826020860162000607565b91505092915050565b600073ffffffffffffffffffffffffffffffffffffffff82169050919050565b6000620006b28262000685565b9050919050565b620006c481620006a5565b8114620006d057600080fd5b50565b600081519050620006e481620006b9565b92915050565b600080600060608486031215620007065762000705620004fc565b5b600084015167ffffffffffffffff81111562000727576200072662000501565b5b620007358682870162000652565b935050602084015167ffffffffffffffff81111562000759576200075862000501565b5b620007678682870162000652565b92505060406200077a86828701620006d3565b9150509250925092565b600081519050919050565b7f4e487b7100000000000000000000000000000000000000000000000000000000600052602260045260246000fd5b60006002820490506001821680620007d757607f821691505b602082108103620007ed57620007ec6200078f565b5b50919050565b60008190508160005260206000209050919050565b60006020601f8301049050919050565b600082821b905092915050565b600060088302620008577fffffffffffffffffffffffffffffffffffffffffffffffffffffffffffffffff8262000818565b62000863868362000818565b95508019841693508086168417925050509392505050565b6000819050919050565b6000819050919050565b6000620008b0620008aa620008a4846200087b565b62000885565b6200087b565b9050919050565b6000819050919050565b620008cc836200088f565b620008e4620008db82620008b7565b84845462000825565b825550505050565b600090565b620008fb620008ec565b62000908818484620008c1565b505050565b5b81811015620009305762000924600082620008f1565b6001810190506200090e565b5050565b601f8211156200097f576200094981620007f3565b620009548462000808565b8101602085101562000964578190505b6200097c620009738562000808565b8301826200090d565b50505b505050565b600082821c905092915050565b6000620009a46000198460080262000984565b1980831691505092915050565b6000620009bf838362000991565b9150826002028217905092915050565b620009da8262000784565b67ffffffffffffffff811115620009f657620009f562000521565b5b62000a028254620007be565b62000a0f82828562000934565b600060209050601f83116001811462000a47576000841562000a32578287015190505b62000a3e8582620009b1565b86555062000aae565b601f19841662000a5786620007f3565b60005b8281101562000a815784890151825560018201915060208501945060208101905062000a5a565b8683101562000aa1578489015162000a9d601f89168262000991565b8355505b6001600288020188555050505b505050505050565b615a928062000ac66000396000f3fe608060405234801561001057600080fd5b50600436106101725760003560e01c80637408a11a116100de578063bd85b03911610097578063e9f7677d11610071578063e9f7677d14610481578063f0ab48571461049f578063f1d8659c146104cf578063f242432a146104ff57610172565b8063bd85b039146103f1578063c87b56dd14610421578063e985e9c51461045157610172565b80637408a11a1461034557806395d89b41146103635780639c54df6414610381578063a0712d681461039d578063a22cb465146103b9578063ae2cb6d3146103d557610172565b80632eb2c2d6116101305780632eb2c2d6146102715780634bf365df1461028d5780634e1273f4146102ab5780634f558e79146102db578063516c906f1461030b57806372a589a71461033b57610172565b8062fdd58e1461017757806301ffc9a7146101a757806306fdde03146101d75780630e89341c146101f557806324d7806c1461022557806327e1f7df14610255575b600080fd5b610191600480360381019061018c91906137b1565b61051b565b60405161019e9190613800565b60405180910390f35b6101c160048036038101906101bc9190613873565b6105e3565b6040516101ce91906138bb565b60405180910390f35b6101df6106c5565b6040516101ec9190613966565b60405180910390f35b61020f600480360381019061020a9190613988565b610753565b60405161021c9190613966565b60405180910390f35b61023f600480360381019061023a91906139b5565b610769565b60405161024c91906138bb565b60405180910390f35b61026f600480360381019061026a91906139b5565b6107bf565b005b61028b60048036038101906102869190613bdf565b6108a6565b005b610295610947565b6040516102a291906138bb565b60405180910390f35b6102c560048036038101906102c09190613d71565b61095a565b6040516102d29190613ea7565b60405180910390f35b6102f560048036038101906102f09190613988565b610a73565b60405161030291906138bb565b60405180910390f35b61032560048036038101906103209190613988565b610a87565b6040516103329190614136565b60405180910390f35b610343610d83565b005b61034d610e3b565b60405161035a91906142ed565b60405180910390f35b61036b611113565b6040516103789190613966565b60405180910390f35b61039b6004803603810190610396919061430f565b6111a1565b005b6103b760048036038101906103b29190613988565b61135b565b005b6103d360048036038101906103ce9190614384565b6115e9565b005b6103ef60048036038101906103ea919061444b565b6115ff565b005b61040b60048036038101906104069190613988565b6119a6565b6040516104189190613800565b60405180910390f35b61043b60048036038101906104369190613988565b6119c3565b6040516104489190613966565b60405180910390f35b61046b60048036038101906104669190614545565b6119d9565b60405161047891906138bb565b60405180910390f35b610489611a6d565b6040516104969190614594565b60405180910390f35b6104b960048036038101906104b491906139b5565b611a93565b6040516104c691906142ed565b60405180910390f35b6104e960048036038101906104e491906139b5565b611e8b565b6040516104f691906142ed565b60405180910390f35b610519600480360381019061051491906145af565b61227d565b005b60008073ffffffffffffffffffffffffffffffffffffffff168373ffffffffffffffffffffffffffffffffffffffff160361058b576040517f08c379a0000000000000000000000000000000000000000000000000000000008152600401610582906146b8565b60405180910390fd5b60008083815260200190815260200160002060008473ffffffffffffffffffffffffffffffffffffffff1673ffffffffffffffffffffffffffffffffffffffff16815260200190815260200160002054905092915050565b60007fd9b67a26000000000000000000000000000000000000000000000000000000007bffffffffffffffffffffffffffffffffffffffffffffffffffffffff1916827bffffffffffffffffffffffffffffffffffffffffffffffffffffffff191614806106ae57507f0e89341c000000000000000000000000000000000000000000000000000000007bffffffffffffffffffffffffffffffffffffffffffffffffffffffff1916827bffffffffffffffffffffffffffffffffffffffffffffffffffffffff1916145b806106be57506106bd82612334565b5b9050919050565b600780546106d290614707565b80601f01602080910402602001604051908101604052809291908181526020018280546106fe90614707565b801561074b5780601f106107205761010080835404028352916020019161074b565b820191906000526020600020905b81548152906001019060200180831161072e57829003601f168201915b505050505081565b606061075e82610a87565b60c001519050919050565b6000600460008373ffffffffffffffffffffffffffffffffffffffff1673ffffffffffffffffffffffffffffffffffffffff16815260200190815260200160002060009054906101000a900460ff169050919050565b600460003373ffffffffffffffffffffffffffffffffffffffff1673ffffffffffffffffffffffffffffffffffffffff16815260200190815260200160002060009054906101000a900460ff1661084b576040517f08c379a000000000000000000000000000000000000000000000000000000000815260040161084290614784565b60405180910390fd5b6000600460008373ffffffffffffffffffffffffffffffffffffffff1673ffffffffffffffffffffffffffffffffffffffff16815260200190815260200160002060006101000a81548160ff02191690831515021790555050565b6108ae61239e565b73ffffffffffffffffffffffffffffffffffffffff168573ffffffffffffffffffffffffffffffffffffffff1614806108f457506108f3856108ee61239e565b6119d9565b5b610933576040517f08c379a000000000000000000000000000000000000000000000000000000000815260040161092a90614816565b60405180910390fd5b61094085858585856123a6565b5050505050565b600560009054906101000a900460ff1681565b606081518351146109a0576040517f08c379a0000000000000000000000000000000000000000000000000000000008152600401610997906148a8565b60405180910390fd5b6000835167ffffffffffffffff8111156109bd576109bc6139e7565b5b6040519080825280602002602001820160405280156109eb5781602001602082028036833780820191505090505b50905060005b8451811015610a6857610a38858281518110610a1057610a0f6148c8565b5b6020026020010151858381518110610a2b57610a2a6148c8565b5b602002602001015161051b565b828281518110610a4b57610a4a6148c8565b5b60200260200101818152505080610a6190614926565b90506109f1565b508091505092915050565b600080610a7f836119a6565b119050919050565b610a8f613595565b81600b8054905011610ad6576040517f08c379a0000000000000000000000000000000000000000000000000000000008152600401610acd906149ba565b60405180910390fd5b600b8281548110610aea57610ae96148c8565b5b9060005260206000209060070201604051806101200160405290816000820160009054906101000a900473ffffffffffffffffffffffffffffffffffffffff1673ffffffffffffffffffffffffffffffffffffffff1673ffffffffffffffffffffffffffffffffffffffff1681526020016000820160149054906101000a900467ffffffffffffffff1667ffffffffffffffff1667ffffffffffffffff1681526020016001820160009054906101000a900467ffffffffffffffff1667ffffffffffffffff1667ffffffffffffffff1681526020016001820160089054906101000a900467ffffffffffffffff1667ffffffffffffffff1667ffffffffffffffff1681526020016002820154815260200160038201548152602001600482018054610c1490614707565b80601f0160208091040260200160405190810160405280929190818152602001828054610c4090614707565b8015610c8d5780601f10610c6257610100808354040283529160200191610c8d565b820191906000526020600020905b815481529060010190602001808311610c7057829003601f168201915b5050505050815260200160058201805480602002602001604051908101604052809291908181526020018280548015610ce557602002820191906000526020600020905b815481526020019060010190808311610cd1575b5050505050815260200160068201805480602002602001604051908101604052809291908181526020018280548015610d7357602002820191906000526020600020905b8160009054906101000a900473ffffffffffffffffffffffffffffffffffffffff1673ffffffffffffffffffffffffffffffffffffffff1681526020019060010190808311610d29575b5050505050815250509050919050565b600460003373ffffffffffffffffffffffffffffffffffffffff1673ffffffffffffffffffffffffffffffffffffffff16815260200190815260200160002060009054906101000a900460ff16610e0f576040517f08c379a0000000000000000000000000000000000000000000000000000000008152600401610e0690614784565b60405180910390fd5b600560009054906101000a900460ff1615600560006101000a81548160ff021916908315150217905550565b6060600b805480602002602001604051908101604052809291908181526020016000905b8282101561110a5783829060005260206000209060070201604051806101200160405290816000820160009054906101000a900473ffffffffffffffffffffffffffffffffffffffff1673ffffffffffffffffffffffffffffffffffffffff1673ffffffffffffffffffffffffffffffffffffffff1681526020016000820160149054906101000a900467ffffffffffffffff1667ffffffffffffffff1667ffffffffffffffff1681526020016001820160009054906101000a900467ffffffffffffffff1667ffffffffffffffff1667ffffffffffffffff1681526020016001820160089054906101000a900467ffffffffffffffff1667ffffffffffffffff1667ffffffffffffffff1681526020016002820154815260200160038201548152602001600482018054610f9390614707565b80601f0160208091040260200160405190810160405280929190818152602001828054610fbf90614707565b801561100c5780601f10610fe15761010080835404028352916020019161100c565b820191906000526020600020905b815481529060010190602001808311610fef57829003601f168201915b505050505081526020016005820180548060200260200160405190810160405280929190818152602001828054801561106457602002820191906000526020600020905b815481526020019060010190808311611050575b50505050508152602001600682018054806020026020016040519081016040528092919081815260200182805480156110f257602002820191906000526020600020905b8160009054906101000a900473ffffffffffffffffffffffffffffffffffffffff1673ffffffffffffffffffffffffffffffffffffffff16815260200190600101908083116110a8575b50505050508152505081526020019060010190610e5f565b50505050905090565b6008805461112090614707565b80601f016020809104026020016040519081016040528092919081815260200182805461114c90614707565b80156111995780601f1061116e57610100808354040283529160200191611199565b820191906000526020600020905b81548152906001019060200180831161117c57829003601f168201915b505050505081565b600460003373ffffffffffffffffffffffffffffffffffffffff1673ffffffffffffffffffffffffffffffffffffffff16815260200190815260200160002060009054906101000a900460ff1661122d576040517f08c379a000000000000000000000000000000000000000000000000000000000815260040161122490614784565b60405180910390fd5b60008151905060008111611276576040517f08c379a000000000000000000000000000000000000000000000000000000000815260040161126d90614a26565b60405180910390fd5b60005b81811015611356576000838281518110611296576112956148c8565b5b60200260200101519050600460008273ffffffffffffffffffffffffffffffffffffffff1673ffffffffffffffffffffffffffffffffffffffff16815260200190815260200160002060009054906101000a900460ff1661134a576001600460008373ffffffffffffffffffffffffffffffffffffffff1673ffffffffffffffffffffffffffffffffffffffff16815260200190815260200160002060006101000a81548160ff0219169083151502179055505b81600101915050611279565b505050565b61136560016126c7565b600560009054906101000a900460ff166113b4576040517f08c379a00000000000000000000000000000000000000000000000000000000081526004016113ab90614a92565b60405180910390fd5b60006113c0338361051b565b14611400576040517f08c379a00000000000000000000000000000000000000000000000000000000081526004016113f790614b24565b60405180910390fd5b600061140b82610a87565b905042816020015167ffffffffffffffff16111561145e576040517f08c379a000000000000000000000000000000000000000000000000000000000815260040161145590614b90565b60405180910390fd5b42816040015167ffffffffffffffff1610156114af576040517f08c379a00000000000000000000000000000000000000000000000000000000081526004016114a690614bfc565b60405180910390fd5b6114b8826119a6565b816060015167ffffffffffffffff1611611507576040517f08c379a00000000000000000000000000000000000000000000000000000000081526004016114fe90614c68565b60405180910390fd5b600a60003373ffffffffffffffffffffffffffffffffffffffff1673ffffffffffffffffffffffffffffffffffffffff1681526020019081526020016000208290806001815401808255809150506001900390600052602060002001600090919091909150556115858160a001518260e001518361010001516127a8565b6115a13383600160405180602001604052806000815250612938565b813373ffffffffffffffffffffffffffffffffffffffff167f0f6798a560793a54c3bcfe86a93cde1e73087d944c0ea20544137d412139688560405160405180910390a35050565b6115fb6115f461239e565b8383612ae8565b5050565b61160960016126c7565b60008867ffffffffffffffff16148061164e575060405180602001604052806000815250805190602001208787604051611644929190614cb8565b6040518091039020145b8061166157508461165e82612c54565b14155b156116a1576040517fa8c278dd00000000000000000000000000000000000000000000000000000000815260040161169890614d1d565b60405180910390fd5b60006116ad6006612cab565b9050600960003373ffffffffffffffffffffffffffffffffffffffff1673ffffffffffffffffffffffffffffffffffffffff168152602001908152602001600020819080600181540180825580915050600190039060005260206000200160009091909190915055600b6040518061012001604052803373ffffffffffffffffffffffffffffffffffffffff1681526020018767ffffffffffffffff1681526020018667ffffffffffffffff1681526020018b67ffffffffffffffff1681526020018381526020018881526020018a8a8080601f016020809104026020016040519081016040528093929190818152602001838380828437600081840152601f19601f82011690508083019250505050505050815260200184815260200185815250908060018154018082558091505060019003906000526020600020906007020160009091909190915060008201518160000160006101000a81548173ffffffffffffffffffffffffffffffffffffffff021916908373ffffffffffffffffffffffffffffffffffffffff16021790555060208201518160000160146101000a81548167ffffffffffffffff021916908367ffffffffffffffff16021790555060408201518160010160006101000a81548167ffffffffffffffff021916908367ffffffffffffffff16021790555060608201518160010160086101000a81548167ffffffffffffffff021916908367ffffffffffffffff1602179055506080820151816002015560a0820151816003015560c08201518160040190816118f59190614ee9565b5060e0820151816005019080519060200190611912929190613615565b50610100820151816006019080519060200190611930929190613662565b50505061193d600661231e565b3373ffffffffffffffffffffffffffffffffffffffff167fa8bb6096ee2e296bdee24c0ec16b21a57fa46509c20f6d46d093ebe49f5b3f6986868c858b8e8e8a8c60405161199399989796959493929190615066565b60405180910390a2505050505050505050565b600060036000838152602001908152602001600020549050919050565b60606119ce82610a87565b60c001519050919050565b6000600160008473ffffffffffffffffffffffffffffffffffffffff1673ffffffffffffffffffffffffffffffffffffffff16815260200190815260200160002060008373ffffffffffffffffffffffffffffffffffffffff1673ffffffffffffffffffffffffffffffffffffffff16815260200190815260200160002060009054906101000a900460ff16905092915050565b600560019054906101000a900473ffffffffffffffffffffffffffffffffffffffff1681565b60606000600960008473ffffffffffffffffffffffffffffffffffffffff1673ffffffffffffffffffffffffffffffffffffffff168152602001908152602001600020805480602002602001604051908101604052809291908181526020018280548015611b2057602002820191906000526020600020905b815481526020019060010190808311611b0c575b5050505050905060008151905060008167ffffffffffffffff811115611b4957611b486139e7565b5b604051908082528060200260200182016040528015611b8257816020015b611b6f613595565b815260200190600190039081611b675790505b50905060005b82811015611e7f576000600b858381518110611ba757611ba66148c8565b5b602002602001015181548110611bc057611bbf6148c8565b5b9060005260206000209060070201604051806101200160405290816000820160009054906101000a900473ffffffffffffffffffffffffffffffffffffffff1673ffffffffffffffffffffffffffffffffffffffff1673ffffffffffffffffffffffffffffffffffffffff1681526020016000820160149054906101000a900467ffffffffffffffff1667ffffffffffffffff1667ffffffffffffffff1681526020016001820160009054906101000a900467ffffffffffffffff1667ffffffffffffffff1667ffffffffffffffff1681526020016001820160089054906101000a900467ffffffffffffffff1667ffffffffffffffff1667ffffffffffffffff1681526020016002820154815260200160038201548152602001600482018054611cea90614707565b80601f0160208091040260200160405190810160405280929190818152602001828054611d1690614707565b8015611d635780601f10611d3857610100808354040283529160200191611d63565b820191906000526020600020905b815481529060010190602001808311611d4657829003601f168201915b5050505050815260200160058201805480602002602001604051908101604052809291908181526020018280548015611dbb57602002820191906000526020600020905b815481526020019060010190808311611da7575b5050505050815260200160068201805480602002602001604051908101604052809291908181526020018280548015611e4957602002820191906000526020600020905b8160009054906101000a900473ffffffffffffffffffffffffffffffffffffffff1673ffffffffffffffffffffffffffffffffffffffff1681526020019060010190808311611dff575b505050505081525050905080838381518110611e6857611e676148c8565b5b602002602001018190525081600101915050611b88565b50809350505050919050565b60606000600a60008473ffffffffffffffffffffffffffffffffffffffff1673ffffffffffffffffffffffffffffffffffffffff168152602001908152602001600020805480602002602001604051908101604052809291908181526020018280548015611f1857602002820191906000526020600020905b815481526020019060010190808311611f04575b5050505050905060008151905060008167ffffffffffffffff811115611f4157611f406139e7565b5b604051908082528060200260200182016040528015611f7a57816020015b611f67613595565b815260200190600190039081611f5f5790505b50905060005b8281101561227157600b848281518110611f9d57611f9c6148c8565b5b602002602001015181548110611fb657611fb56148c8565b5b9060005260206000209060070201604051806101200160405290816000820160009054906101000a900473ffffffffffffffffffffffffffffffffffffffff1673ffffffffffffffffffffffffffffffffffffffff1673ffffffffffffffffffffffffffffffffffffffff1681526020016000820160149054906101000a900467ffffffffffffffff1667ffffffffffffffff1667ffffffffffffffff1681526020016001820160009054906101000a900467ffffffffffffffff1667ffffffffffffffff1667ffffffffffffffff1681526020016001820160089054906101000a900467ffffffffffffffff1667ffffffffffffffff1667ffffffffffffffff16815260200160028201548152602001600382015481526020016004820180546120e090614707565b80601f016020809104026020016040519081016040528092919081815260200182805461210c90614707565b80156121595780601f1061212e57610100808354040283529160200191612159565b820191906000526020600020905b81548152906001019060200180831161213c57829003601f168201915b50505050508152602001600582018054806020026020016040519081016040528092919081815260200182805480156121b157602002820191906000526020600020905b81548152602001906001019080831161219d575b505050505081526020016006820180548060200260200160405190810160405280929190818152602001828054801561223f57602002820191906000526020600020905b8160009054906101000a900473ffffffffffffffffffffffffffffffffffffffff1673ffffffffffffffffffffffffffffffffffffffff16815260200190600101908083116121f5575b50505050508152505082828151811061225b5761225a6148c8565b5b6020026020010181905250806001019050611f80565b50809350505050919050565b61228561239e565b73ffffffffffffffffffffffffffffffffffffffff168573ffffffffffffffffffffffffffffffffffffffff1614806122cb57506122ca856122c561239e565b6119d9565b5b61230a576040517f08c379a000000000000000000000000000000000000000000000000000000000815260040161230190614816565b60405180910390fd5b6123178585858585612cb9565b5050505050565b6001816000016000828254019250508190555050565b60007f01ffc9a7000000000000000000000000000000000000000000000000000000007bffffffffffffffffffffffffffffffffffffffffffffffffffffffff1916827bffffffffffffffffffffffffffffffffffffffffffffffffffffffff1916149050919050565b600033905090565b81518351146123ea576040517f08c379a00000000000000000000000000000000000000000000000000000000081526004016123e19061516d565b60405180910390fd5b600073ffffffffffffffffffffffffffffffffffffffff168473ffffffffffffffffffffffffffffffffffffffff1603612459576040517f08c379a0000000000000000000000000000000000000000000000000000000008152600401612450906151ff565b60405180910390fd5b600061246361239e565b9050612473818787878787612f54565b60005b8451811015612624576000858281518110612494576124936148c8565b5b6020026020010151905060008583815181106124b3576124b26148c8565b5b60200260200101519050600080600084815260200190815260200160002060008b73ffffffffffffffffffffffffffffffffffffffff1673ffffffffffffffffffffffffffffffffffffffff16815260200190815260200160002054905081811015612554576040517f08c379a000000000000000000000000000000000000000000000000000000000815260040161254b90615291565b60405180910390fd5b81810360008085815260200190815260200160002060008c73ffffffffffffffffffffffffffffffffffffffff1673ffffffffffffffffffffffffffffffffffffffff168152602001908152602001600020819055508160008085815260200190815260200160002060008b73ffffffffffffffffffffffffffffffffffffffff1673ffffffffffffffffffffffffffffffffffffffff168152602001908152602001600020600082825461260991906152b1565b925050819055505050508061261d90614926565b9050612476565b508473ffffffffffffffffffffffffffffffffffffffff168673ffffffffffffffffffffffffffffffffffffffff168273ffffffffffffffffffffffffffffffffffffffff167f4a39dc06d4c0dbc64b70af90fd698a233a518aa5d07e595d983b8c0526c8f7fb878760405161269b9291906152e5565b60405180910390a46126b1818787878787612f6a565b6126bf818787878787612f72565b505050505050565b80600560019054906101000a900473ffffffffffffffffffffffffffffffffffffffff1673ffffffffffffffffffffffffffffffffffffffff166370a08231336040518263ffffffff1660e01b81526004016127239190614594565b602060405180830381865afa158015612740573d6000803e3d6000fd5b505050506040513d601f19601f820116820180604052508101906127649190615331565b10156127a5576040517f08c379a000000000000000000000000000000000000000000000000000000000815260040161279c906153d0565b60405180910390fd5b50565b6127b1836126c7565b6000829050600081519050825181146127ff576040517f08c379a00000000000000000000000000000000000000000000000000000000081526004016127f69061543c565b60405180910390fd5b60005b81811015612930576000600560019054906101000a900473ffffffffffffffffffffffffffffffffffffffff1673ffffffffffffffffffffffffffffffffffffffff166323b872dd3387858151811061285e5761285d6148c8565b5b6020026020010151878681518110612879576128786148c8565b5b60200260200101516040518463ffffffff1660e01b815260040161289f9392919061545c565b6020604051808303816000875af11580156128be573d6000803e3d6000fd5b505050506040513d601f19601f820116820180604052508101906128e291906154a8565b905080612924576040517f08c379a000000000000000000000000000000000000000000000000000000000815260040161291b90615521565b60405180910390fd5b81600101915050612802565b505050505050565b600073ffffffffffffffffffffffffffffffffffffffff168473ffffffffffffffffffffffffffffffffffffffff16036129a7576040517f08c379a000000000000000000000000000000000000000000000000000000000815260040161299e906155b3565b60405180910390fd5b60006129b161239e565b905060006129be85613149565b905060006129cb85613149565b90506129dc83600089858589612f54565b8460008088815260200190815260200160002060008973ffffffffffffffffffffffffffffffffffffffff1673ffffffffffffffffffffffffffffffffffffffff1681526020019081526020016000206000828254612a3b91906152b1565b925050819055508673ffffffffffffffffffffffffffffffffffffffff16600073ffffffffffffffffffffffffffffffffffffffff168473ffffffffffffffffffffffffffffffffffffffff167fc3d58168c5ae7397731d063d5bbf3d657854427343f4c083240f7aacaa2d0f628989604051612ab99291906155d3565b60405180910390a4612ad083600089858589612f6a565b612adf836000898989896131c3565b50505050505050565b8173ffffffffffffffffffffffffffffffffffffffff168373ffffffffffffffffffffffffffffffffffffffff1603612b56576040517f08c379a0000000000000000000000000000000000000000000000000000000008152600401612b4d9061566e565b60405180910390fd5b80600160008573ffffffffffffffffffffffffffffffffffffffff1673ffffffffffffffffffffffffffffffffffffffff16815260200190815260200160002060008473ffffffffffffffffffffffffffffffffffffffff1673ffffffffffffffffffffffffffffffffffffffff16815260200190815260200160002060006101000a81548160ff0219169083151502179055508173ffffffffffffffffffffffffffffffffffffffff168373ffffffffffffffffffffffffffffffffffffffff167f17307eab39ab6107e8899845ad3d59bd9653f200f220920489ca2b5937696c3183604051612c4791906138bb565b60405180910390a3505050565b6000808290506000815190506000805b82811015612c9f57838181518110612c7f57612c7e6148c8565b5b602002602001015182612c9291906152b1565b9150806001019050612c64565b50809350505050919050565b600081600001549050919050565b600073ffffffffffffffffffffffffffffffffffffffff168473ffffffffffffffffffffffffffffffffffffffff1603612d28576040517f08c379a0000000000000000000000000000000000000000000000000000000008152600401612d1f906151ff565b60405180910390fd5b6000612d3261239e565b90506000612d3f85613149565b90506000612d4c85613149565b9050612d5c838989858589612f54565b600080600088815260200190815260200160002060008a73ffffffffffffffffffffffffffffffffffffffff1673ffffffffffffffffffffffffffffffffffffffff16815260200190815260200160002054905085811015612df3576040517f08c379a0000000000000000000000000000000000000000000000000000000008152600401612dea90615291565b60405180910390fd5b85810360008089815260200190815260200160002060008b73ffffffffffffffffffffffffffffffffffffffff1673ffffffffffffffffffffffffffffffffffffffff168152602001908152602001600020819055508560008089815260200190815260200160002060008a73ffffffffffffffffffffffffffffffffffffffff1673ffffffffffffffffffffffffffffffffffffffff1681526020019081526020016000206000828254612ea891906152b1565b925050819055508773ffffffffffffffffffffffffffffffffffffffff168973ffffffffffffffffffffffffffffffffffffffff168573ffffffffffffffffffffffffffffffffffffffff167fc3d58168c5ae7397731d063d5bbf3d657854427343f4c083240f7aacaa2d0f628a8a604051612f259291906155d3565b60405180910390a4612f3b848a8a86868a612f6a565b612f49848a8a8a8a8a6131c3565b505050505050505050565b612f6286868686868661339a565b505050505050565b505050505050565b612f918473ffffffffffffffffffffffffffffffffffffffff1661356a565b15613141578373ffffffffffffffffffffffffffffffffffffffff1663bc197c8187878686866040518663ffffffff1660e01b8152600401612fd79594939291906156e3565b6020604051808303816000875af192505050801561301357506040513d601f19601f820116820180604052508101906130109190615760565b60015b6130b85761301f61579a565b806308c379a00361307b57506130336157bc565b8061303e575061307d565b806040517f08c379a00000000000000000000000000000000000000000000000000000000081526004016130729190613966565b60405180910390fd5b505b6040517f08c379a00000000000000000000000000000000000000000000000000000000081526004016130af906158be565b60405180910390fd5b63bc197c8160e01b7bffffffffffffffffffffffffffffffffffffffffffffffffffffffff1916817bffffffffffffffffffffffffffffffffffffffffffffffffffffffff19161461313f576040517f08c379a000000000000000000000000000000000000000000000000000000000815260040161313690615950565b60405180910390fd5b505b505050505050565b60606000600167ffffffffffffffff811115613168576131676139e7565b5b6040519080825280602002602001820160405280156131965781602001602082028036833780820191505090505b50905082816000815181106131ae576131ad6148c8565b5b60200260200101818152505080915050919050565b6131e28473ffffffffffffffffffffffffffffffffffffffff1661356a565b15613392578373ffffffffffffffffffffffffffffffffffffffff1663f23a6e6187878686866040518663ffffffff1660e01b8152600401613228959493929190615970565b6020604051808303816000875af192505050801561326457506040513d601f19601f820116820180604052508101906132619190615760565b60015b6133095761327061579a565b806308c379a0036132cc57506132846157bc565b8061328f57506132ce565b806040517f08c379a00000000000000000000000000000000000000000000000000000000081526004016132c39190613966565b60405180910390fd5b505b6040517f08c379a0000000000000000000000000000000000000000000000000000000008152600401613300906158be565b60405180910390fd5b63f23a6e6160e01b7bffffffffffffffffffffffffffffffffffffffffffffffffffffffff1916817bffffffffffffffffffffffffffffffffffffffffffffffffffffffff191614613390576040517f08c379a000000000000000000000000000000000000000000000000000000000815260040161338790615950565b60405180910390fd5b505b505050505050565b6133a886868686868661358d565b600073ffffffffffffffffffffffffffffffffffffffff168573ffffffffffffffffffffffffffffffffffffffff16036134595760005b8351811015613457578281815181106133fb576133fa6148c8565b5b60200260200101516003600086848151811061341a576134196148c8565b5b60200260200101518152602001908152602001600020600082825461343f91906152b1565b925050819055508061345090614926565b90506133df565b505b600073ffffffffffffffffffffffffffffffffffffffff168473ffffffffffffffffffffffffffffffffffffffff16036135625760005b83518110156135605760008482815181106134ae576134ad6148c8565b5b6020026020010151905060008483815181106134cd576134cc6148c8565b5b6020026020010151905060006003600084815260200190815260200160002054905081811015613532576040517f08c379a000000000000000000000000000000000000000000000000000000000815260040161352990615a3c565b60405180910390fd5b81810360036000858152602001908152602001600020819055505050508061355990614926565b9050613490565b505b505050505050565b6000808273ffffffffffffffffffffffffffffffffffffffff163b119050919050565b505050505050565b604051806101200160405280600073ffffffffffffffffffffffffffffffffffffffff168152602001600067ffffffffffffffff168152602001600067ffffffffffffffff168152602001600067ffffffffffffffff16815260200160008152602001600081526020016060815260200160608152602001606081525090565b828054828255906000526020600020908101928215613651579160200282015b82811115613650578251825591602001919060010190613635565b5b50905061365e91906136ec565b5090565b8280548282559060005260206000209081019282156136db579160200282015b828111156136da5782518260006101000a81548173ffffffffffffffffffffffffffffffffffffffff021916908373ffffffffffffffffffffffffffffffffffffffff16021790555091602001919060010190613682565b5b5090506136e891906136ec565b5090565b5b808211156137055760008160009055506001016136ed565b5090565b6000604051905090565b600080fd5b600080fd5b600073ffffffffffffffffffffffffffffffffffffffff82169050919050565b60006137488261371d565b9050919050565b6137588161373d565b811461376357600080fd5b50565b6000813590506137758161374f565b92915050565b6000819050919050565b61378e8161377b565b811461379957600080fd5b50565b6000813590506137ab81613785565b92915050565b600080604083850312156137c8576137c7613713565b5b60006137d685828601613766565b92505060206137e78582860161379c565b9150509250929050565b6137fa8161377b565b82525050565b600060208201905061381560008301846137f1565b92915050565b60007fffffffff0000000000000000000000000000000000000000000000000000000082169050919050565b6138508161381b565b811461385b57600080fd5b50565b60008135905061386d81613847565b92915050565b60006020828403121561388957613888613713565b5b60006138978482850161385e565b91505092915050565b60008115159050919050565b6138b5816138a0565b82525050565b60006020820190506138d060008301846138ac565b92915050565b600081519050919050565b600082825260208201905092915050565b60005b838110156139105780820151818401526020810190506138f5565b60008484015250505050565b6000601f19601f8301169050919050565b6000613938826138d6565b61394281856138e1565b93506139528185602086016138f2565b61395b8161391c565b840191505092915050565b60006020820190508181036000830152613980818461392d565b905092915050565b60006020828403121561399e5761399d613713565b5b60006139ac8482850161379c565b91505092915050565b6000602082840312156139cb576139ca613713565b5b60006139d984828501613766565b91505092915050565b600080fd5b7f4e487b7100000000000000000000000000000000000000000000000000000000600052604160045260246000fd5b613a1f8261391c565b810181811067ffffffffffffffff82111715613a3e57613a3d6139e7565b5b80604052505050565b6000613a51613709565b9050613a5d8282613a16565b919050565b600067ffffffffffffffff821115613a7d57613a7c6139e7565b5b602082029050602081019050919050565b600080fd5b6000613aa6613aa184613a62565b613a47565b90508083825260208201905060208402830185811115613ac957613ac8613a8e565b5b835b81811015613af25780613ade888261379c565b845260208401935050602081019050613acb565b5050509392505050565b600082601f830112613b1157613b106139e2565b5b8135613b21848260208601613a93565b91505092915050565b600080fd5b600067ffffffffffffffff821115613b4a57613b496139e7565b5b613b538261391c565b9050602081019050919050565b82818337600083830152505050565b6000613b82613b7d84613b2f565b613a47565b905082815260208101848484011115613b9e57613b9d613b2a565b5b613ba9848285613b60565b509392505050565b600082601f830112613bc657613bc56139e2565b5b8135613bd6848260208601613b6f565b91505092915050565b600080600080600060a08688031215613bfb57613bfa613713565b5b6000613c0988828901613766565b9550506020613c1a88828901613766565b945050604086013567ffffffffffffffff811115613c3b57613c3a613718565b5b613c4788828901613afc565b935050606086013567ffffffffffffffff811115613c6857613c67613718565b5b613c7488828901613afc565b925050608086013567ffffffffffffffff811115613c9557613c94613718565b5b613ca188828901613bb1565b9150509295509295909350565b600067ffffffffffffffff821115613cc957613cc86139e7565b5b602082029050602081019050919050565b6000613ced613ce884613cae565b613a47565b90508083825260208201905060208402830185811115613d1057613d0f613a8e565b5b835b81811015613d395780613d258882613766565b845260208401935050602081019050613d12565b5050509392505050565b600082601f830112613d5857613d576139e2565b5b8135613d68848260208601613cda565b91505092915050565b60008060408385031215613d8857613d87613713565b5b600083013567ffffffffffffffff811115613da657613da5613718565b5b613db285828601613d43565b925050602083013567ffffffffffffffff811115613dd357613dd2613718565b5b613ddf85828601613afc565b9150509250929050565b600081519050919050565b600082825260208201905092915050565b6000819050602082019050919050565b613e1e8161377b565b82525050565b6000613e308383613e15565b60208301905092915050565b6000602082019050919050565b6000613e5482613de9565b613e5e8185613df4565b9350613e6983613e05565b8060005b83811015613e9a578151613e818882613e24565b9750613e8c83613e3c565b925050600181019050613e6d565b5085935050505092915050565b60006020820190508181036000830152613ec18184613e49565b905092915050565b613ed28161373d565b82525050565b600067ffffffffffffffff82169050919050565b613ef581613ed8565b82525050565b600082825260208201905092915050565b6000613f17826138d6565b613f218185613efb565b9350613f318185602086016138f2565b613f3a8161391c565b840191505092915050565b600082825260208201905092915050565b6000613f6182613de9565b613f6b8185613f45565b9350613f7683613e05565b8060005b83811015613fa7578151613f8e8882613e24565b9750613f9983613e3c565b925050600181019050613f7a565b5085935050505092915050565b600081519050919050565b600082825260208201905092915050565b6000819050602082019050919050565b6000613fec8383613ec9565b60208301905092915050565b6000602082019050919050565b600061401082613fb4565b61401a8185613fbf565b935061402583613fd0565b8060005b8381101561405657815161403d8882613fe0565b975061404883613ff8565b925050600181019050614029565b5085935050505092915050565b60006101208301600083015161407c6000860182613ec9565b50602083015161408f6020860182613eec565b5060408301516140a26040860182613eec565b5060608301516140b56060860182613eec565b5060808301516140c86080860182613e15565b5060a08301516140db60a0860182613e15565b5060c083015184820360c08601526140f38282613f0c565b91505060e083015184820360e086015261410d8282613f56565b9150506101008301518482036101008601526141298282614005565b9150508091505092915050565b600060208201905081810360008301526141508184614063565b905092915050565b600081519050919050565b600082825260208201905092915050565b6000819050602082019050919050565b60006101208301600083015161419d6000860182613ec9565b5060208301516141b06020860182613eec565b5060408301516141c36040860182613eec565b5060608301516141d66060860182613eec565b5060808301516141e96080860182613e15565b5060a08301516141fc60a0860182613e15565b5060c083015184820360c08601526142148282613f0c565b91505060e083015184820360e086015261422e8282613f56565b91505061010083015184820361010086015261424a8282614005565b9150508091505092915050565b60006142638383614184565b905092915050565b6000602082019050919050565b600061428382614158565b61428d8185614163565b93508360208202850161429f85614174565b8060005b858110156142db57848403895281516142bc8582614257565b94506142c78361426b565b925060208a019950506001810190506142a3565b50829750879550505050505092915050565b600060208201905081810360008301526143078184614278565b905092915050565b60006020828403121561432557614324613713565b5b600082013567ffffffffffffffff81111561434357614342613718565b5b61434f84828501613d43565b91505092915050565b614361816138a0565b811461436c57600080fd5b50565b60008135905061437e81614358565b92915050565b6000806040838503121561439b5761439a613713565b5b60006143a985828601613766565b92505060206143ba8582860161436f565b9150509250929050565b6143cd81613ed8565b81146143d857600080fd5b50565b6000813590506143ea816143c4565b92915050565b600080fd5b60008083601f84011261440b5761440a6139e2565b5b8235905067ffffffffffffffff811115614428576144276143f0565b5b60208301915083600182028301111561444457614443613a8e565b5b9250929050565b60008060008060008060008060e0898b03121561446b5761446a613713565b5b60006144798b828c016143db565b985050602089013567ffffffffffffffff81111561449a57614499613718565b5b6144a68b828c016143f5565b975097505060406144b98b828c0161379c565b95505060606144ca8b828c016143db565b94505060806144db8b828c016143db565b93505060a089013567ffffffffffffffff8111156144fc576144fb613718565b5b6145088b828c01613d43565b92505060c089013567ffffffffffffffff81111561452957614528613718565b5b6145358b828c01613afc565b9150509295985092959890939650565b6000806040838503121561455c5761455b613713565b5b600061456a85828601613766565b925050602061457b85828601613766565b9150509250929050565b61458e8161373d565b82525050565b60006020820190506145a96000830184614585565b92915050565b600080600080600060a086880312156145cb576145ca613713565b5b60006145d988828901613766565b95505060206145ea88828901613766565b94505060406145fb8882890161379c565b935050606061460c8882890161379c565b925050608086013567ffffffffffffffff81111561462d5761462c613718565b5b61463988828901613bb1565b9150509295509295909350565b7f455243313135353a2061646472657373207a65726f206973206e6f742061207660008201527f616c6964206f776e657200000000000000000000000000000000000000000000602082015250565b60006146a2602a836138e1565b91506146ad82614646565b604082019050919050565b600060208201905081810360008301526146d181614695565b9050919050565b7f4e487b7100000000000000000000000000000000000000000000000000000000600052602260045260246000fd5b6000600282049050600182168061471f57607f821691505b602082108103614732576147316146d8565b5b50919050565b7f41646d696e73206f6e6c79000000000000000000000000000000000000000000600082015250565b600061476e600b836138e1565b915061477982614738565b602082019050919050565b6000602082019050818103600083015261479d81614761565b9050919050565b7f455243313135353a2063616c6c6572206973206e6f7420746f6b656e206f776e60008201527f6572206f7220617070726f766564000000000000000000000000000000000000602082015250565b6000614800602e836138e1565b915061480b826147a4565b604082019050919050565b6000602082019050818103600083015261482f816147f3565b9050919050565b7f455243313135353a206163636f756e747320616e6420696473206c656e67746860008201527f206d69736d617463680000000000000000000000000000000000000000000000602082015250565b60006148926029836138e1565b915061489d82614836565b604082019050919050565b600060208201905081810360008301526148c181614885565b9050919050565b7f4e487b7100000000000000000000000000000000000000000000000000000000600052603260045260246000fd5b7f4e487b7100000000000000000000000000000000000000000000000000000000600052601160045260246000fd5b60006149318261377b565b91507fffffffffffffffffffffffffffffffffffffffffffffffffffffffffffffffff8203614963576149626148f7565b5b600182019050919050565b7f5469636b65743a206e6f7420617661696c61626c650000000000000000000000600082015250565b60006149a46015836138e1565b91506149af8261496e565b602082019050919050565b600060208201905081810360008301526149d381614997565b9050919050565b7f4e656564206f6e65206f72206d6f7265206e65772061646d696e730000000000600082015250565b6000614a10601b836138e1565b9150614a1b826149da565b602082019050919050565b60006020820190508181036000830152614a3f81614a03565b9050919050565b7f5469636b65743a204e6f74206d696e7461626c65000000000000000000000000600082015250565b6000614a7c6014836138e1565b9150614a8782614a46565b602082019050919050565b60006020820190508181036000830152614aab81614a6f565b9050919050565b7f5469636b65743a20596f7520616c72656164792068617665207468697320746960008201527f636b657400000000000000000000000000000000000000000000000000000000602082015250565b6000614b0e6024836138e1565b9150614b1982614ab2565b604082019050919050565b60006020820190508181036000830152614b3d81614b01565b9050919050565b7f5469636b65743a204e6f74206f70656e20796574000000000000000000000000600082015250565b6000614b7a6014836138e1565b9150614b8582614b44565b602082019050919050565b60006020820190508181036000830152614ba981614b6d565b9050919050565b7f5469636b65743a20416c726561647920636c6f73656400000000000000000000600082015250565b6000614be66016836138e1565b9150614bf182614bb0565b602082019050919050565b60006020820190508181036000830152614c1581614bd9565b9050919050565b7f5469636b65743a204d696e74206c696d69742072656163686564000000000000600082015250565b6000614c52601a836138e1565b9150614c5d82614c1c565b602082019050919050565b60006020820190508181036000830152614c8181614c45565b9050919050565b600081905092915050565b6000614c9f8385614c88565b9350614cac838584613b60565b82840190509392505050565b6000614cc5828486614c93565b91508190509392505050565b7f5469636b65743a20696e76616c696420706172616d7300000000000000000000600082015250565b6000614d076016836138e1565b9150614d1282614cd1565b602082019050919050565b60006020820190508181036000830152614d3681614cfa565b9050919050565b60008190508160005260206000209050919050565b60006020601f8301049050919050565b600082821b905092915050565b600060088302614d9f7fffffffffffffffffffffffffffffffffffffffffffffffffffffffffffffffff82614d62565b614da98683614d62565b95508019841693508086168417925050509392505050565b6000819050919050565b6000614de6614de1614ddc8461377b565b614dc1565b61377b565b9050919050565b6000819050919050565b614e0083614dcb565b614e14614e0c82614ded565b848454614d6f565b825550505050565b600090565b614e29614e1c565b614e34818484614df7565b505050565b5b81811015614e5857614e4d600082614e21565b600181019050614e3a565b5050565b601f821115614e9d57614e6e81614d3d565b614e7784614d52565b81016020851015614e86578190505b614e9a614e9285614d52565b830182614e39565b50505b505050565b600082821c905092915050565b6000614ec060001984600802614ea2565b1980831691505092915050565b6000614ed98383614eaf565b9150826002028217905092915050565b614ef2826138d6565b67ffffffffffffffff811115614f0b57614f0a6139e7565b5b614f158254614707565b614f20828285614e5c565b600060209050601f831160018114614f535760008415614f41578287015190505b614f4b8582614ecd565b865550614fb3565b601f198416614f6186614d3d565b60005b82811015614f8957848901518255600182019150602085019450602081019050614f64565b86831015614fa65784890151614fa2601f891682614eaf565b8355505b6001600288020188555050505b505050505050565b614fc481613ed8565b82525050565b6000614fd683856138e1565b9350614fe3838584613b60565b614fec8361391c565b840190509392505050565b600082825260208201905092915050565b600061501382613fb4565b61501d8185614ff7565b935061502883613fd0565b8060005b838110156150595781516150408882613fe0565b975061504b83613ff8565b92505060018101905061502c565b5085935050505092915050565b60006101008201905061507c600083018c614fbb565b615089602083018b614fbb565b615096604083018a614fbb565b6150a360608301896137f1565b6150b060808301886137f1565b81810360a08301526150c3818688614fca565b905081810360c08301526150d78185613e49565b905081810360e08301526150eb8184615008565b90509a9950505050505050505050565b7f455243313135353a2069647320616e6420616d6f756e7473206c656e6774682060008201527f6d69736d61746368000000000000000000000000000000000000000000000000602082015250565b60006151576028836138e1565b9150615162826150fb565b604082019050919050565b600060208201905081810360008301526151868161514a565b9050919050565b7f455243313135353a207472616e7366657220746f20746865207a65726f20616460008201527f6472657373000000000000000000000000000000000000000000000000000000602082015250565b60006151e96025836138e1565b91506151f48261518d565b604082019050919050565b60006020820190508181036000830152615218816151dc565b9050919050565b7f455243313135353a20696e73756666696369656e742062616c616e636520666f60008201527f72207472616e7366657200000000000000000000000000000000000000000000602082015250565b600061527b602a836138e1565b91506152868261521f565b604082019050919050565b600060208201905081810360008301526152aa8161526e565b9050919050565b60006152bc8261377b565b91506152c78361377b565b92508282019050808211156152df576152de6148f7565b5b92915050565b600060408201905081810360008301526152ff8185613e49565b905081810360208301526153138184613e49565b90509392505050565b60008151905061532b81613785565b92915050565b60006020828403121561534757615346613713565b5b60006153558482850161531c565b91505092915050565b7f5469636b65743a20496e73756666696369656e742048656e6b616b755632207460008201527f6f6b656e00000000000000000000000000000000000000000000000000000000602082015250565b60006153ba6024836138e1565b91506153c58261535e565b604082019050919050565b600060208201905081810360008301526153e9816153ad565b9050919050565b7f616d6f756e747320616e6420746f206c656e677468206d69736d617463680000600082015250565b6000615426601e836138e1565b9150615431826153f0565b602082019050919050565b6000602082019050818103600083015261545581615419565b9050919050565b60006060820190506154716000830186614585565b61547e6020830185614585565b61548b60408301846137f1565b949350505050565b6000815190506154a281614358565b92915050565b6000602082840312156154be576154bd613713565b5b60006154cc84828501615493565b91505092915050565b7f5469636b65743a2048656e6b616b75207472616e73666572206661696c656400600082015250565b600061550b601f836138e1565b9150615516826154d5565b602082019050919050565b6000602082019050818103600083015261553a816154fe565b9050919050565b7f455243313135353a206d696e7420746f20746865207a65726f2061646472657360008201527f7300000000000000000000000000000000000000000000000000000000000000602082015250565b600061559d6021836138e1565b91506155a882615541565b604082019050919050565b600060208201905081810360008301526155cc81615590565b9050919050565b60006040820190506155e860008301856137f1565b6155f560208301846137f1565b9392505050565b7f455243313135353a2073657474696e6720617070726f76616c2073746174757360008201527f20666f722073656c660000000000000000000000000000000000000000000000602082015250565b60006156586029836138e1565b9150615663826155fc565b604082019050919050565b600060208201905081810360008301526156878161564b565b9050919050565b600081519050919050565b600082825260208201905092915050565b60006156b58261568e565b6156bf8185615699565b93506156cf8185602086016138f2565b6156d88161391c565b840191505092915050565b600060a0820190506156f86000830188614585565b6157056020830187614585565b81810360408301526157178186613e49565b9050818103606083015261572b8185613e49565b9050818103608083015261573f81846156aa565b90509695505050505050565b60008151905061575a81613847565b92915050565b60006020828403121561577657615775613713565b5b60006157848482850161574b565b91505092915050565b60008160e01c9050919050565b600060033d11156157b95760046000803e6157b660005161578d565b90505b90565b600060443d10615849576157ce613709565b60043d036004823e80513d602482011167ffffffffffffffff821117156157f6575050615849565b808201805167ffffffffffffffff8111156158145750505050615849565b80602083010160043d038501811115615831575050505050615849565b61584082602001850186613a16565b82955050505050505b90565b7f455243313135353a207472616e7366657220746f206e6f6e2d4552433131353560008201527f526563656976657220696d706c656d656e746572000000000000000000000000602082015250565b60006158a86034836138e1565b91506158b38261584c565b604082019050919050565b600060208201905081810360008301526158d78161589b565b9050919050565b7f455243313135353a204552433131353552656365697665722072656a6563746560008201527f6420746f6b656e73000000000000000000000000000000000000000000000000602082015250565b600061593a6028836138e1565b9150615945826158de565b604082019050919050565b600060208201905081810360008301526159698161592d565b9050919050565b600060a0820190506159856000830188614585565b6159926020830187614585565b61599f60408301866137f1565b6159ac60608301856137f1565b81810360808301526159be81846156aa565b90509695505050505050565b7f455243313135353a206275726e20616d6f756e74206578636565647320746f7460008201527f616c537570706c79000000000000000000000000000000000000000000000000602082015250565b6000615a266028836138e1565b9150615a31826159ca565b604082019050919050565b60006020820190508181036000830152615a5581615a19565b905091905056fea26469706673582212201ed538fc9095e29d38252065d187f4f37ca87ae68d24c677db5cd7ee14a7b8d364736f6c63430008110033",
  "linkReferences": {},
  "deployedLinkReferences": {}
}